S00B00004144432E7372656351
S11300000C9434000C9446000C9446000C94460066
S11300100C9446000C9446000C9446000C94460044
S11300200C9446000C9446000C9446000C94460034
S11300300C9446000C9446000C9446000C94460024
S11300400C9446000C9446000C9446000C94460014
S11300500C9446000C9446000C9446000C94460004
S11300600C9446000C94460011241FBECFEFD8E038
S1130070DEBFCDBF21E0A0E0B1E001C01D92A730FA
S1130080B207E1F70E946E000C9478000C94000013
S1130090EAE7F0E0808187608083ACE7B0E08C9190
S11300A080648C9380818068808380818064808375
S11300B00895ECE7F0E09081907F90839081892B04
S11300C08083EAE7F0E0808180648083808186FD1C
S11300D0FDCF809178009091790008950E944800A6
S11300E080E00E9459009093010180930001F8CFB1
S10700F0F894FFCFAE
S9030000FC
